:1000000014C100000C9446300C9471300C949C3058
:100010000C94C7300C94F2300C941D310C94483180
:100020000C94733133C1000031C100002FC10000B6
:100030002DC100002BC1000029C1000027C1000014
:1000400025C1000023C1000021C100001FC1000024
:100050001DC100001BC1000019C100000C949E319D
:1000600015C100000C949A350C94D0350FC10000D6
:100070000DC100000BC1000009C1000007C1000054
:1000800005C1000003C1000001C10000FFC0000065
:100090000C9426360C945C36F9C00000F7C00000C2
:1000A000F5C00000F3C00000F1C00000EFC0000088
:1000B000EDC00000EBC00000E9C00000E7C0000098
:1000C000E5C00000E3C000000C94BE2B0C94B236D7
:1000D0000C94E836DBC000000C943E370C94743767
:1000E000D5C0000005A84CCDB2D44EB93836A9020F
:1000F0000C50B9918688083CA6AAAA2ABE00000026
:10010000803F00000A0B02090C0D0E0807030401D2
:1001100000000000000000000000000000000000DF
:1001200000000000000000000000000000001211AC
:1001300010000000000000000000000000000000AF
:10014000000000000000000001021020200808103C
:100150002040102040800201020108040201010237
:100160000408102040808040201008040201800410
:10017000020180402010080402010804020101026B
:10018000040810204080010204081020408005056A
:100190000505070508080808020202020A0A0808FD
:1001A000040404040101010101010101030303032B
:1001B00003030303040707070C0C0C0C0C0C0C0CBA
:1001C0000202020206060606060606060B0B0B0BCB
:1001D0000B0B0B0B000020002300260029002C0035
:1001E0002F00320000010000030106010901000098
:1001F0002200250028002B002E00310034000201CF
:100200000000050108010B01000021002400270067
:100210002A002D0030003300010100000401070115
:100220000A01F935853611379D3711241FBECFEFEE
:10023000D1E2DEBFCDBF00E00CBF13E0A0E0B2E032
:10024000EAE9F0E700E00BBF02C007900D92A4348A
:10025000B107D9F72AE0A4E4B3E001C01D92A936A2
:10026000B207E1F711E0C5E1D1E000E006C0219757
:100270000109802FFE010E941A38C131D10780E0A8
:100280000807A9F70E94B02C0C944B38B9CECF9236
:10029000DF92EF92FF92CF93882351F16A017B01A5
:1002A000CFEFC80F20E030E0A901CB01B6010E94DA
:1002B000922D87FF11C0C701B60190580E94032EEE
:1002C0009B01AC016C2F70E090E080E0CF91FF903B
:1002D000EF90DF90CF90B2C0C701B6010E94FE2D13
:1002E0008C2FCF91FF90EF90DF90CF900C94A532A0
:1002F000CF91FF90EF90DF90CF9008950F931F93D1
:100300008B019C0183E036952795179507958A9573
:10031000D1F70C5B1C4F462F477021E030E0F9010C
:1003200002C0EE0FFF1F4A95E2F7AF01F8012081EE
:100330002423CB010196211102C090E080E01F919F
:100340000F9108950F931F938B019C0183E03695C5
:100350002795179507958A95D1F7677081E090E00A
:1003600001C0880F6A95EAF7F801EC5BFC4F208129
:10037000452B31F48095822380831F910F9108953E
:10038000822BFACF2F923F924F925F926F927F9281
:100390008F929F92AF92BF92CF92DF92EF92FF9295
:1003A0000F931F93CF93DF93D62EC72E782E692EEF
:1003B00049015A01280161E08D2D0E94DF33CD2DC6
:1003C000DC2D8E010F5F1F4FA8016D2D7C2D872D19
:1003D000962DB8DF20E030E0A901C201B7010E94EC
:1003E000E12E181664F4C201B7010E94032E2B01FE
:1003F000C501B4010E94032EA201CE0123D0C80181
:10040000DF91CF911F910F91FF90EF90DF90CF90F0
:10041000BF90AF909F908F907F906F905F904F9024
:100420003F902F900895882341F08150682F70E00D
:1004300090E080E050E040E085CF0895862FB9013C
:100440000C94A5329C01FC01EE5FFE4FE491E1505B
:10045000E231E0F4F0E08827EF5CFD4F8F4F0C9421
:100460001A3843024A024D026402790246028E02A1
:100470009A029E02B502CA02DF02F6020B0346028E
:10048000200337034C0384B5806884BD60E0822F6D
:100490000C941B3484B58062F8CF809180008C7FEF
:1004A00082608093800080918100807E8061682BD3
:1004B0006093810050938700409386008091800074
:1004C000806880938000E2CF809180008C7F826082
:1004D0008093800080918100807E8061682B609392
:1004E0008100509387004093860080918000806255
:1004F000E8CF809180008C7F826080938000809123
:100500008100807E8061682B60938100509387001A
:1005100040938600809180008860D3CF8091B000A6
:1005200080688093B0008091B100887F682B6093D1
:10053000B100ACCF8091B0008062F3CF8091900089
:100540008C7F82608093900080919100807E80619A
:10055000682B609391005093970040939600809190
:10056000900080688093900091CF809190008C7F64
:1005700082608093900080919100807E8061682BE2
:100580006093910050939700409396008091900063
:100590008062E8CF809190008C7F82608093900091
:1005A00080919100807E8061682B609391005093D0
:1005B000970040939600809190008860D3CF8091FF
:1005C000A0008C7F82608093A0008091A100807E3B
:1005D0008061682B6093A1005093A7004093A60010
:1005E0008091A00080688093A00050CF8091A000EF
:1005F0008C7F82608093A0008091A100807E8061CA
:10060000682B6093A1005093A7004093A6008091AF
:10061000A0008062E8CF8091A0008C7F82608093F0
:10062000A0008091A100807E8061682B6093A10072
:100630005093A7004093A6008091A0008860D3CF7C
:10064000809120018C7F8260809320018091210124
:10065000807E8061682B6093210150932701409335
:100660002601809120018068809320010FCF809126
:1006700020018C7F82608093200180912101807E07
:100680008061682B609321015093270140932601DC
:10069000809120018062E8CF809120018C7F826070
:1006A0008093200180912101807E8061682B60937E
:1006B00021015093270140932601809120018860F9
:1006C000D3CF90E080E008950F931F93009709F433
:1006D00089C06115710509F485C000911C02109153
:1006E0001D0220911E0230911F020E3F1F4F2F4FFF
:1006F0003F4F09F068C04FEF5FEFBA0140931C0213
:1007000050931D0260931E0270931F0240911C02C1
:1007100050911D0260911E0270911F02DC01129621
:10072000ED91FC9180819181A281B38180934704F6
:1007300090934804A0934904B0934A04848195811E
:10074000A681B7818093430490934404A093450409
:10075000B093460480859185A285B38580933F043C
:1007600090934004A0934104B093420484859585FE
:10077000A685B78580933B0490933C04A0933D04E9
:10078000B0933E041092370410923804109239044A
:1007900010923A040E9406128BE292E190934E036B
:1007A00080934D039093500380934F030E94051153
:1007B000009731F421E030E030934C0420934B0457
:1007C0001F910F91089500911C0210911D0220911C
:1007D0001E0230911F02DB010D931D932D933C935C
:1007E000139794CF8FEF9FEFEBCF8F929F92AF92A3
:1007F000BF92CF92DF92EF92FF921F93CF93DF933E
:100800004B015C0110914E0482E090E090934C0407
:1008100080934B0481149104A104B10441F48091AC
:100820004E04811104C080914D04C1E08111C0E0EB
:10083000C12CD12C760180914E04811106C080918B
:100840004D04811102C0CC23D9F083E090E0909355
:100850004C0480934B04CC2381F1CCE9DFEF1111E0
:1008600002C00E949015CE01DF91CF911F91FF90A1
:10087000EF90DF90CF90BF90AF909F908F900895B2
:100880006AE070E080E090E00E940D3280E1C80EE6
:1008900087E2D81EE11CF11C8FEF88169806A80687
:1008A000B80631F0C1E08C149D04AE04BF0408F01A
:1008B000C0E080E00E943111BECFD0E0C0E0CFCFD9
:1008C000CF92DF92EF92FF920F931F93CF93DF931C
:1008D0008F3F910511F008F046C020914B043091F4
:1008E0004C042330310539F020914B0430914C04F5
:1008F0002130310531F424E030E030934C04209372
:100900004B046A017B01EC0182309105B8F011E0E3
:10091000AE01C701B6010E940411AB01BC0190E019
:1009200080E0112311F1CE01DF91CF911F910F9142
:10093000FF90EF90DF90CF900C94A5178C01000FE3
:10094000111F035B1C4FD8018D919C91892BF9F2EB
:100950000E94AC170297D9F6D801ED91FC91CE0117
:100960001995182FD5CF8FEF9FEFDF91CF911F9162
:100970000F91FF90EF90DF90CF90089580E00C945E
:100980003111CF93DF9386E090E090934C048093F5
:100990004B040E948A11EC01EDE4F3E084E0DF01F6
:1009A0001D928A95E9F70E94281510924C04109226
:1009B0004B04CE01DF91CF91089580914D040895AD
:1009C00080913604089560931C0270931D028093F9
:1009D0001E0290931F0290E080E008952F923F92B4
:1009E0004F925F926F927F928F929F92AF92BF923F
:1009F000CF92DF92EF92FF920F931F93CF93DF93EB
:100A0000CDB7DEB7E0970FB6F894DEBF0FBECDBF0F
:100A1000E0911404F091150420910802309109022C
:100A200040910A0250910B02608171818281938111
:100A30000E94E52E20910C0230910D0240910E0291
:100A400050910F020E942E2D0E94482F20910002EB
:100A50003091010240910202509103020E94E52E62
:100A60002091040230910502409106025091070244
:100A70000E942E2D60934B0A70934C0A80934D0A6E
:100A800090934E0A6FED78E083E39AE00E94852B05
:100A90002091330A3091340A4091350A5091360A38
:100AA00060911002709111028091120290911302D4
:100AB0000E94E52E6B017C012091F3083091F4082F
:100AC0004091F5085091F6080E942D2D4B015C01D4
:100AD00020E030E44CE157E40E94E12E18160CF0BF
:100AE0009EC020E030E040E85FE36091F70870913D
:100AF000F8088091F9089091FA080E942D2D6093D2
:100B0000F7087093F8088093F9089093FA0820E0AA
:100B100030E040E85FE46091F7087091F808809158
:100B2000F9089091FA080E94E52EA70196010E940B
:100B30002E2D4B015C012091140230911502409141
:100B40001602509117026BED7FE089EC90E40E9451
:100B5000962D9B01AC01C501B4010E94E52E2091A8
:100B600018023091190240911A0250911B020E9402
:100B7000962D6F87788B898B9A8B6093370A709349
:100B8000380A8093390A90933A0AC092F308D092B7
:100B9000F408E092F508F092F608E0911404F09160
:100BA000150480809180A280B3801091E3080091A9
:100BB000E4083090E5082090E608F090EB08E0901B
:100BC000EC08D090ED08C090EE08A5019401612FCB
:100BD000702F832D922D0E94E12E2F2D3E2D4D2D15
:100BE0005C2D87FD35C0C501B4010E94922D1816F9
:100BF0000CF069C62F2D3E2D4D2D5C2D612F702FD1
:100C0000832D922D0E94922D87FD2AC04090EF08DF
:100C10005090F0086090F1087090F20835C020E024
:100C200030E44CE157ECC501B4010E94922D87FFDE
:100C30006ECF20E030E040E85FE36091F70870910C
:100C4000F8088091F9089091FA080E942E2D57CF4C
:100C5000612F702F832D922D0E94922D87FF0AC045
:100C60002F2D3E2D4D2D5C2DC501B4010E94E12E8E
:100C7000181664F24090E7085090E8086090E90880
:100C80007090EA08780161012F2D3E2D4D2D5C2DCD
:100C9000C501B4010E942D2D6B017C01A3019201BD
:100CA0006F85788989899A890E942D2DA7019601DF
:100CB0000E94962D6B8B7C8B8D8B9E8B81E08D8320
:100CC00089831E821A821F821B8218861C822BE057
:100CD00039E0388B2F874E0135E0830E911C8FEC65
:100CE00098E098A78FA30BE019E0C12CD12C7601D6
:100CF000D401BD904D0120E030E0A901F8016481EC
:100D00007581868197810E94E52ED8012D913D91B4
:100D10004D915C910E942E2D2B013C0120E030E092
:100D2000A901F80160857185828593850E94E52E71
:100D30009B01AC01C301B2010E942E2D2B013C018D
:100D400020E030E0A901D8011C966D917D918D9134
:100D50009C911F970E94E52E9B01AC01C301B2013B
:100D60000E942E2D2B013C016B2DBB0C770B880BA9
:100D7000990B0E94312E9B01AC01C301B2010E946C
:100D8000E52E9B01AC01C701B6010E942E2D6B011F
:100D90007C01005F1F4FB9E00B341B0709F0A8CF9F
:100DA00020918B0930918C0940918D0950918E09C9
:100DB0000E942E2D2B013C01EBEFF8E0F88FEF8B1A
:100DC00023E13AE03C8F2B8FCE0101969C878B87E5
:100DD000DE011596BA87A9871C0138A32F8F0BEF68
:100DE00018E0C12CD12C760120E030E0A901D80117
:100DF00090966D917D918D919C9193970E94E52E97
:100E0000F80120893189428953890E942E2D4B0196
:100E10005C0120E030E0A901D801D0966D917D9170
:100E20008D919C91D3970E94E52E9B01AC01C50149
:100E3000B4010E942E2D4B015C01F801E05CFF4FD4
:100E400020E030E0A90160817181828193810E945C
:100E5000E52E9B01AC01C501B4010E942E2DA3011A
:100E600092010E94962DEF8DF8A161937193819369
:100E70009193F8A3EF8FD1016D911D01062E000C07
:100E8000770B880B990B0E94312EF801208131815C
:100E9000428153810C5F1F4F0E94E52E9B01AC01E4
:100EA000C701B6010E942E2D6B017C01E985FA85F0
:100EB0002E163F0609F098CF80914B0A90914C0A6C
:100EC000A0914D0AB0914E0A8F8F98A3A9A3BAA3FF
:100ED00020E030E0A901BC01CD010E94E52EA70170
:100EE00096010E942E2D9B01AC016B897C898D8916
:100EF0009E890E942D2D2B013C018091130A909117
:100F0000140AA091150AB091160A8B8B9C8BAD8B9D
:100F1000BE8B8091170A9091180AA091190AB0917E
:100F20001A0A8BA39CA3ADA3BEA380911B0A909128
:100F30001C0AA0911D0AB0911E0A89A79AA7ABA707
:100F4000BCA780911F0A9091200AA091210AB0911C
:100F5000220A8DA79EA7AFA7B8AB63E9C62E69E0AA
:100F6000D62EAB85BC851D91BC87AB87EF89F88DEC
:100F700081909190A190B190F88FEF8BAB8DBC8D4B
:100F80006D917D918D919D91BC8FAB8F7F01B4E070
:100F9000EB1AF108A30192010E94E52EA50194012C
:100FA0000E942E2DF7016083718382839383612FCA
:100FB000110F770B880B990B0E94312E4B015C01AE
:100FC000AC019B016B897C898D899E890E94E52EED
:100FD000D6016D937D938D939C9313972BA13CA188
:100FE0004DA15EA1C501B4010E94E52EF601648306
:100FF00075838683978329A53AA54BA55CA5C50172
:10100000B4010E94E52ED60118966D937D938D93C1
:101010009C931B972DA53EA54FA558A9C501B401CA
:101020000E94E52EF6016487758786879787F0E131
:10103000CF0ED11C2B853C852215330509F091CFAD
:10104000C090FB08D090FC08E090FD08F090FE08EE
:1010500020E030E0A901C701B6010E94922D812C49
:10106000912C50E8A52E5FEBB52E87FD23C020E024
:1010700030E0A901C701B6010E94E12E812C912C1C
:1010800040E8A42E4FE3B42E1816A4F020E030E080
:10109000A901C701B6010E94922D812C912C540107
:1010A000882341F080905B0A90905C0AA0905D0AD2
:1010B000B0905E0A8091FF0890910009A09101090B
:1010C000B09102098B879C87AD87BE87B0588F8B04
:1010D000988FA98FBA8F8091030990910409A091EC
:1010E0000509B09106098B8B9C8BAD8BBE8B8091D3
:1010F000070990910809A0910909B0910A098B8FFD
:101100009C8FAD8FBE8F2F89388D498D5A8DC70129
:10111000B6010E94E52E2B013C012B893C894D89AB
:101120005E896F8D78A189A19AA10E94E52E9B010D
:10113000AC01C301B2010E942E2D2B013C01A5017F
:1011400094016B8D7C8D8D8D9E8D0E94E52E9B0173
:10115000AC01C301B2010E942D2D2AE037ED43E21C
:101160005CE30E94E52EA70196010E942E2D60935C
:101170003B0A70933C0A80933D0A90933E0A8B850C
:101180009C85AD85BE8580933F0A9093400AA093CD
:10119000410AB093420A8B899C89AD89BE898093AC
:1011A000430A9093440AA093450AB093460A8B8D54
:1011B0009C8DAD8DBE8D8093470A9093480AA09375
:1011C000490AB0934A0A03E919E0312C212CD801CD
:1011D00050968D919D910D90BC91A02D8B879C87F1
:1011E000AD87BE87D8018D919D910D90BC91A02DAA
:1011F0008B8B9C8BAD8BBE8BD80190968D919D91E6
:101200000D90BC91A02D8B8F9C8FAD8FBE8FD80180
:10121000D0968D919D910D90BC91A02D8BA39CA3F8
:10122000ADA3BEA33BE0632E39E0732E512C412CBD
:10123000C201805C9F4FD801A80FB91FBAA7A9A708
:10124000F301E20DF31DFEA7EDA7D30114962D9136
:101250003D914D915C9117976B857C858D859E8521
:101260000E94E52E4B015C01F30120813181428116
:1012700053816B897C898D899E890E94E52E9B0113
:10128000AC01C501B4010E942E2D4B015C01D301BC
:1012900018962D913D914D915C911B976B8D7C8D96
:1012A0008D8D9E8D0E94E52E9B01AC01C501B40180
:1012B0000E942E2D4B015C01F30124853585468566
:1012C00057856BA17CA18DA19EA10E94E52E9B015B
:1012D000AC01C501B4010E942E2D9B01AC01ADA54E
:1012E000BEA56D917D918D919C910E942D2DE9A5BA
:1012F000FAA56083718382839383F0E16F0E711C82
:1013000020E1420E511C30E44316510409F090CF05
:101310000C5F1F4F84E0280E311C90E12916310428
:1013200009F055CFE3EDF9E0FC87EB8703E21AE023
:1013300023E13AE08BE099E0419151916191719103
:10134000DC014D935D936D937D93CD01D8011D928A
:101350008D012E173F0781F72AE037ED43E25CE36A
:101360006F89788D898D9A8D0E94E52E20E030E07E
:1013700040E85FE30E942E2D6093930970939409D7
:1013800080939509909396096091240A062E000C8B
:10139000770B880B990B0E94312E609397097093FD
:1013A00098098093990990939A096091250A062ECD
:1013B000000C770B880B990B0E94312E60939B09D0
:1013C00070939C0980939D0990939E096091260AD1
:1013D000062E000C770B880B990B0E94312E609320
:1013E0009F097093A0098093A1099093A2092AE014
:1013F00037ED43E25CE3C701B60190580E94E52E49
:101400004B015C016091270A062E000C770B880BBC
:10141000990B0E94312E9B01AC01C501B4010E94C1
:101420002E2D6093A3097093A4098093A50990932E
:10143000A609812C912C20E8A22E2FE3B22E8092B7
:10144000A7099092A809A092A909B092AA0960914F
:10145000290A062E000C770B880B990B0E94312E5F
:101460006093AB097093AC098093AD099093AE097A
:1014700060912A0A062E000C770B880B990B0E94AC
:10148000312E6093AF097093B0098093B1099093A6
:10149000B20960912B0A062E000C770B880B990B72
:1014A0000E94312E2B013C012AE037ED43E25CE340
:1014B0006F8D78A189A19AA10E94E52E9B01AC01B4
:1014C000C301B2010E942E2D6093B3097093B40939
:1014D0008093B5099093B60960912C0A062E000CF2
:1014E000770B880B990B0E94312E6093B70970938C
:1014F000B8098093B9099093BA098092BB09909278
:10150000BC09A092BD09B092BE0960912E0A062EB8
:10151000000C770B880B990B0E94312E6093BF094A
:101520007093C0098093C1099093C20920E030E014
:10153000A901C701B6010E94922D87FDC9C120E013
:1015400030E0A901C701B6010E94E12E18160CF483
:10155000C4C120E030E0A901C701B6010E94922D6C
:10156000882309F4BFC180915B0A90915C0AA09125
:101570005D0AB0915E0ABC01CD0190582AE037EDBA
:1015800043E25CE30E94E52E6B017C0160912F0A2F
:10159000062E000C770B880B990B0E94312E9B01B5
:1015A000AC01C701B6010E942E2D6093C309709350
:1015B000C4098093C5099093C6096091300A062E2C
:1015C000000C770B880B990B0E94312E6093C70992
:1015D0007093C8098093C9099093CA096091310A30
:1015E000062E000C770B880B990B0E94312E60930E
:1015F000CB097093CC098093CD099093CE0980E0FC
:1016000090E0A0E8BFE38093CF099093D009A09326
:10161000D109B093D20910E000E0AF85B8894D90B0
:101620005D906D907C90139714968D919D910D9087
:10163000BC91A02D8F8B988FA98FBA8FAF85B88959
:1016400018968D919D910D90BC91A02D8B8B9C8BAC
:10165000AD8BBE8BAF85B8891C968D919D910D90F9
:10166000BC91A02D8B8F9C8FAD8FBE8F93E9292EBF
:1016700099E0392EF10181909190A190B1901F01D4
:101680009F01200F311F3CA32BA324853585468560
:1016900057856F89788D898D9A8D0E94E52E6B0113
:1016A0007C01A5019401C301B2010E94E52E20E056
:1016B00030E0A9010E942E2D9B01AC01C701B601AB
:1016C0000E942E2D6B017C01D1015C962D913D91E4
:1016D0004D915C915F976B897C898D899E890E9471
:1016E000E52E9B01AC01C701B6010E942E2D6B01B6
:1016F0007C01F10124A535A546A557A56B8D7C8DF0
:101700008D8D9E8D0E94E52E9B01AC01C701B60117
:101710000E942E2DABA1BCA1DC966D937D938D9381
:101720009C93DF97E3EAF9E0E215F30509F0A2CF15
:101730002F853889205F3F4F388B2F87005F1F4FE1
:101740000034110509F069CFAB85BC8550964D90EA
:101750005D906D907C905397FD0181919191A19145
:10176000B191FC87EB878F87988BA98BBA8B848D7F
:10177000958DA68DB78D8F8B988FA98FBA8F84A5E5
:1017800095A5A6A5B7A58B8B9C8BAD8BBE8BAFA06B
:10179000B8A403E919E048010C5F1F4FF401208948
:1017A000318942895389C301B2010E94E52E6B0140
:1017B0007C01D4012D913D914D915C916F8578898B
:1017C00089899A890E94E52E9B01AC01C701B60167
:1017D0000E942E2D6B017C01F801248D358D468DE4
:1017E000578D6F89788D898D9A8D0E94E52E9B018A
:1017F000AC01C701B6010E942E2D6B017C01D801FE
:101800009C962D913D914D915C919F976B897C8920
:101810008D899E890E94E52E9B01AC01C701B6010E
:101820000E942E2DF501E458FF4F20813181428125
:1018300053810E942E2DF50164AF75AF86AF97AF2F
:10184000F0E1AF0EB11C2016310609F0A4CFEB85F4
:10185000FC85EC59FF4F80819181A281B381EFA17A
:10186000F8A584A795A7A6A7B7A73496F8A7EFA3CE
:101870002FED38E02E173F0709F066CF20E030E06B
:101880004FE753E46F8D78A189A19AA10E94E52EBC
:1018900020E030E04CEB51E40E94962D6B017C017E
:1018A00020E030E0A9010E94E12E1816FCF4C0925D
:1018B0004B0AD0924C0AE0924D0AF0924E0AC12C8B
:1018C000D12C760126C01B8A1C8A1D8A1E8AF6C965
:1018D00080E090E0A0E8BFEB4ECE80E090E0A0E892
:1018E000BFE349CE80E090E0DC0145CE20E030E06F
:1018F000A901C701B6010E94922D10924B0A1092C5
:101900004C0A10924D0A10924E0AE894F7F887FF9D
:10191000D6CF68E070E080E090E00E947E018C010C
:101920009093DE088093DD0820E030E04FE753E439
:1019300060914B0A70914C0A80914D0A90914E0A29
:101940000E94922D181664F480E090E0AFE7B3E4B3
:1019500080934B0A90934C0AA0934D0AB0934E0A81
:1019600040914B0A50914C0A60914D0A70914E0A79
:10197000C8010E94470169E070E080E090E00E94A9
:101980007E018C019093D6088093D50820E030E04A
:101990004FE753E4C701B6010E94922D181634F4A4
:1019A000C12CD12C8FE7E82E83E4F82EB701A601D5
:1019B000C8010E9447016FED78E083E39AE00E943E
:1019C000982B8091E3089091E408A091E508B091EC
:1019D000E6088F87988BA98BBA8B4090570A509056
:1019E000580A6090590A70905A0AA3019201BC01EA
:1019F000CD010E94922DE0911404F0911504811103
:101A00008AC080819181A281B3818093E308909301
:101A1000E408A093E508B093E608E7EEF8E08091CB
:101A2000370A9091380AA091390AB0913A0A808316
:101A30009183A283B3834091010450910204609189
:101A400003047091040490E080E00E9460044091DF
:101A5000090450910A0460910B0470910C0481E018
:101A600090E00E94600460910104709102048091F2
:101A70000304909104046F5F7F4F8F4F9F4F6093DB
:101A80000104709302048093030490930404009172
:101A90001404109115040E942F2E9B01AC0160913B
:101AA00005047091060480910704909108040E9437
:101AB000E52ED8016D937D938D939C931397809120
:101AC000090490910A04A0910B04B0910C040196B2
:101AD000A11DB11D8093090490930A04A0930B04E7
:101AE000B0930C04E0960FB6F894DEBF0FBECDBFE6
:101AF000DF91CF911F910F91FF90EF90DF90CF90EA
:101B0000BF90AF909F908F907F906F905F904F901D
:101B10003F902F9008958090EB089090EC08A09053
:101B2000ED08B090EE08C080D180E280F380A5017E
:101B30009401C301B2010E94922D81110BC0C09289
:101B4000EB08D092EC08E092ED08F092EE08EFEE90
:101B5000F8E065CFA50194016F85788989899A8914
:101B60000E94922D87FFEBCFC092E308D092E40849
:101B7000E092E508F092E60850CF8F929F92AF92E4
:101B8000BF92EF92FF920F931F93CF93DF9384E066
:101B900090E001D289E693E021E134E030937003D4
:101BA00020936F0324E134E03093AA032093A90328
:101BB00025E034E030937E0320937D039093D4039B
:101BC0008093D30390936E0380936D0381E090E044
:101BD000909312048093110489E492E0909374032B
:101BE0008093730326E134E03093150420931404AA
:101BF00080E090E0A0EFB2E480930D0490930E0497
:101C0000A0930F04B09310048AE097EDA3E2BCE325
:101C10008093050490930604A0930704B0930804EE
:101C200084E697E3ABEBBCE28093EF039093F00381
:101C3000A093F103B093F2038EE89AEDA7E3BBE41F
:101C40008093F3039093F403A093F503B093F6030A
:101C500089EB95E8A0E2B9E68093F7039093F80347
:101C6000A093F903B093FA038BE69CE2A6EBB0E2F3
:101C70008093FB039093FC03A093FD03B093FE03BA
:101C80008DE593E090936C0380936B0381E593E083
:101C900090935E0380935D038BEA92E090935203EE
:101CA000809351039093540380935303909356036E
:101CB00080935503909358038093570390935A034E
:101CC0008093590390935C0380935B038FEF93E0C1
:101CD00090936203809361038FEE93E0909360038F
:101CE00080935F0330936403209363038FED98E048
:101CF0000E94772B1092DF081092E0081092E10802
:101D00001092E2088091570A9091580AA091590ABE
:101D1000B0915A0A8093E3089093E408A093E508F1
:101D2000B093E6088093EB089093EC08A093ED083D
:101D3000B093EE0880E090E0A0E0B0E48093FB0870
:101D40009093FC08A093FD08B093FE0880E090E01B
:101D5000A0E5B1E48093FF0890930009A0930109E6
:101D6000B093020980E090E0A8ECB1E4809303090D
:101D700090930409A0930509B093060980E090E0D0
:101D8000A0E8BFE38093070990930809A09309098D
:101D9000B0930A09CBE9D2E00BE019E09BE5E92E0C
:101DA00092E0F92E6991062E000C770B880B990BA7
:101DB0000E94312EF80161937193819391938F0169
:101DC000F70161917191819191917F012AE037ED45
:101DD00043E25CE30E94E52EF80164AF75AF86AF85
:101DE00097AFF2E0CB3ADF07E9F68AE097EDA3EA96
:101DF000BCE380938B0990938C09A0938D09B093D9
:101E00008E091092D7081092DC08812C912C540175
:101E100083948092D8089092D908A092DA08B09260
:101E2000DB08E12CF12C8701A801970168E070E044
:101E300080E090E00E94C2019093DE088093DD086C
:101E4000C1E0C093DC081092CF081092D4088092B1
:101E5000D0089092D108A092D208B092D308A801DD
:101E6000970169E070E080E090E00E94C2019093E9
:101E7000D6088093D508C093D408DF91CF911F91E5
:101E80000F91FF90EF90BF90AF909F908F9008952B
:101E90008091D70881112EC081E08093D70880916E
:101EA000D8089091D908A091DA08B091DB08019781
:101EB000A105B105F9F48091DC088823D9F068E028
:101EC00070E080E090E00E947E019093DE088093B5
:101ED000DD0840E050E0BA010E94470168E070E090
:101EE00080E090E00E947E019093DE088093DD0800
:101EF0000E9413028091CF0881112EC081E080934F
:101F0000CF088091D0089091D108A091D208B091CB
:101F1000D3080197A105B105F9F48091D40888236D
:101F2000D9F069E070E080E090E00E947E0190933B
:101F3000D6088093D50840E050E0BA010E944701DE
:101F400069E070E080E090E00E947E019093D60806
:101F50008093D5080C941302089560E070E080E847
:101F60009FE7089560E070E080E89FE7089560E0F3
:101F700070E080E89FEF089560E070E080E89FEFF8
:101F8000089560E070E080EC9FEF089560E070E0FD
:101F900080EC9FEF0895F5DF60935B0A70935C0A15
:101FA00080935D0A90935E0AF1DF60934F0A70930D
:101FB000500A8093510A9093520ACFDF6093570AD8
:101FC0007093580A8093590A90935A0ACBDF609312
:101FD000530A7093540A8093550A9093560AC7DFA8
:101FE00060935F0A7093600A8093610A9093620A1B
:101FF000C3DF6093630A7093640A8093650A9093C9
:10200000660A08954F925F926F927F928F929F928D
:10201000AF92BF92CF92DF92EF92FF920F931F93F6
:10202000F89440902A0450902B0460902C047090F7
:102030002D04C0901E04D0901F04E0902004F09066
:1020400021044130510509F0A4C09B01AC012419C1
:1020500035094609570929013A01009126041091D2
:102060002704209128043091290448015901840C47
:10207000951CA61CB71C80169106A206B306A0F4F8
:10208000009122041091230420912404309125040E
:102090000F5F1F4F2F4F3F4F0093220410932304D5
:1020A00020932404309325048092260490922704E0
:1020B000A0922804B09229040091220410912304D4
:1020C000209124043091250480922E0490922F04B4
:1020D000A0923004B0923104009332041093330480
:1020E000209334043093350460932A0470932B04B6
:1020F00080932C0490932D04A0E1B7E2A3019201F8
:102100000E9422386C0D7D1D8E1D9F1D60931E0444
:1021100070931F04809320049093210400911C026B
:1021200010911D0220911E0230911F020F3F1F4F80
:102130002F4F3F4FF1F000911C0210911D02209192
:102140001E0230911F020E3F1F4F2F4F3F4F89F04D
:10215000C0901C02D0901D02E0901E02F0901F0261
:1021600021E08C149D04AE04BF0408F420E0209309
:10217000360478941F910F91FF90EF90DF90CF90ED
:10218000BF90AF909F908F907F906F905F904F9097
:1021900008954B015C0184189508A608B708A301AF
:1021A0009201261B370B480B590B641575058605E4
:1021B0009705D0F082169306A406B50640F420E0F9
:1021C00030E0A90181149104A104B10491F4A0E1CB
:1021D000B7E20E942238A7019601261B370B480B55
:1021E000590BCA01B901C5CF82169306A406B506DC
:1021F00070F7A0E1B7E2A50194010E9422386C0DAE
:102200007D1D8E1D9F1DB5CFFDCECF93DF9300D0DA
:102210001F92CDB7DEB71C821B821A821982BE01C3
:102220006F5F7F4FCE0103960E944A2B69817A81AE
:102230008B819C810E949124009761F4BE016F5FA5
:102240007F4FCE0103960E94562B69817A818B8144
:102250009C8127D50F900F900F900F90DF91CF9119
:102260000895FF920F931F93CF93DF93082F60E0A1
:1022700070E0CB010E940D32FF24F3940E947A2378
:10228000EC01892B89F010E0CE3F8FEFD80769F081
:10229000002361F160E070E0CB010E940D3281E02B
:1022A00090E0892B59F322C011E01ED5EC01892B57
:1022B00021F0CE3F8FEFD80759F711111EC011E062
:1022C000229609F410E00E942A23EC01892B21F0C8
:1022D000CE3F8FEFD807E1F6111111C011E0CE3FCC
:1022E0008FEFD80709F410E001110BC0CE01DF9188
:1022F000CF911F910F91FF90089511E0E4CF11E06D
:10230000F3CF60E070E0CB010E940D321F25812FDA
:1023100090E0C7CFCF93DF931FD6D0E0C0E0892BEA
:1023200071F06AE070E080E090E00E940D3281E0A0
:1023300098DF12D62196C03D27E0D20781F711D64B
:102340000E94E52410924E0410924D04109247040E
:10235000109248041092490410924A0410924304C7
:1023600010924404109245041092460410923F04C7
:1023700010924004109241041092420410923B04C7
:1023800010923C0410923D0410923E0410923704C7
:10239000109238041092390410923A044EEF5FEF15
:1023A0006FEF7FEF40931C0250931D0260931E025B
:1023B00070931F0210923604EEE2F4E028E0DF0191
:1023C0001D922A95E9F710922A0410922B0410927C
:1023D0002C0410922D0410922604109227041092BF
:1023E00028041092290410922204109223041092BF
:1023F00024041092250410921E0410921F041092BF
:10240000200410922104DF91CF91089510925A0474
:1024100010925B0410925C0410925D0410925904B7
:1024200080916204909163049093580480935704C0
:1024300010925604109255041092510410925204B6
:10244000109253041092540410925F0410925E0490
:1024500090E080E00895CF92DF92EF92FF920F9389
:102460001F93CF938C01019709F055C0209162040E
:102470003091630480915704909158044091620414
:102480005091630450935804409357042817390718
:1024900081F010925604109255041092510410923B
:1024A0005204109253041092540410925F0410923C
:1024B0005E048091620490916304019761F58091BC
:1024C0005E0490915F04892B21F480912002811198
:1024D00012C080915E0490915F040197E1F48091B5
:1024E000510490915204A0915304B0915404019767
:1024F000A105B10581F4109251041092520410927A
:102500005304109254041092200282E090E09093C1
:102510005F0480935E04809162049091630401974C
:1025200009F01CC18091780490917904801791077B
:1025300009F014C18091740490917504A0917604FF
:10254000B0917704009709F409C120917304211117
:102550000DC040917404509175046091760470919F
:102560007704452B462B472B09F4F8C020915E04D5
:1025700030915F042230310509F0F0C020915504FC
:102580002111ECC0FC01C080D180E280F3808091F9
:102590005904882309F4D3C080916504909166049E
:1025A000892B09F4FEC0209165043091660481E016
:1025B0002230310509F080E02091650430916604F5
:1025C000C1E02130310549F0209165043091660465
:1025D000C1E02230310509F0C0E0882309F456C07B
:1025E00020916F04309170044091710450917204F5
:1025F000C701B6010E94E12E87FD14C020916F042F
:1026000030917004409171045091720460915A04A9
:1026100070915B0480915C0490915D040E94922D06
:1026200087FD22C020916F043091700440917104A5
:1026300050917204C701B6010E94E12E181634F5BC
:1026400020916F0430917004409171045091720494
:1026500060915A0470915B0480915C0490915D04D8
:102660000E94922D811112C080916704909168049C
:10267000A0916904B0916A04892B8A2B8B2B19F4E1
:1026800081E08093560481E080935504CC2309F4C3
:1026900056C020916F0430917004409171045091A4
:1026A0007204C701B6010E94922D87FF14C02091C9
:1026B0006F043091700440917104509172046091E4
:1026C0005A0470915B0480915C0490915D040E94B7
:1026D000E12E87FF22C020916F0430917004409159
:1026E000710450917204C701B6010E94922D8111AC
:1026F00026C020916F043091700440917104509174
:10270000720460915A0470915B0480915C04909112
:102710005D040E94E12E181694F480916704909154
:102720006804A0916904B0916A04892B8A2B8B2BD1
:1027300019F481E08093560481E08093550481E090
:1027400090915504911180E080935904C0925A04ED
:10275000D0925B04E0925C04F0925D0401301105BC
:1027600009F067C180915E0490915F04892BD9F4D0
:10277000109264041092550480912002882379F00D
:1027800082E090E090935F0480935E0410922002B8
:10279000209162043091630481E0232BE9F080E012
:1027A0001BC081E009CF109220028091640488232D
:1027B00049F01092560410925F0410925E04109239
:1027C0006404EDCF8091620490916304892BE1F061
:1027D000809155041092550420915E0430915F045D
:1027E0002230310509F45EC088F42115310509F461
:1027F00048C02130310509F4F3C0109256041092FC
:1028000055041092640438C081E0E6CF23303105CE
:1028100009F4B1C02430310581F740915104509141
:10282000520460915304709154044115510561059F
:10283000710561F0415051096109710940935104DA
:102840005093520460935304709354044091510484
:10285000509152046091530470915404452B462BBF
:10286000472BD9F420916004309161042130310567
:1028700009F046C01092560410925F0410925E0454
:102880000CC080912002882341F082E090E0909378
:102890005F0480935E041092200210924F04809196
:1028A0005604CEC08823C9F38091670490916804D0
:1028B000A0916904B0916A04181619061A061B063D
:1028C0000CF07DC08091620490916304019709F03F
:1028D00076C08091670490916804A0916904B091DA
:1028E0006A048093510490935204A0935304B093CC
:1028F000540483E090E090935F0480935E04CDCF16
:1029000040916B0450916C0460916D0470916E0461
:10291000452B462B472BA9F01092560480916B044F
:1029200090916C04A0916D04B0916E048093510459
:1029300090935204A0935304B093540481E090E028
:10294000DACF882399F08091210290912202A09100
:102950002302B09124028093510490935204A093D7
:102960005304B093540484E090E0C5CF1092560411
:1029700082E090E0C0CF8091510490915204A091E8
:102980005304B09154040097A105B10559F0019783
:10299000A109B1098093510490935204A093530468
:1029A000B09354048091510490915204A091530427
:1029B000B0915404892B8A2B8B2B09F06ECF809118
:1029C000210290912202A0912302B0912402892B2E
:1029D0008A2B8B2B09F44ECF81E080935604B3CF22
:1029E00040915104509152046091530470915404E9
:1029F000411551056105710561F0415051096109A9
:102A0000710940935104509352046093530470939E
:102A100054044091510450915204609153047091B8
:102A20005404452B462B472B09F037CF8111C7CFD4
:102A30009FCF80914F04882309F431CF80915004B7
:102A4000CF911F910F91FF90EF90DF90CF9008955D
:102A500010925A0410925B0410925C0410925D0470
:102A60001092590410925F0410925E041092580460
:102A70001092570410927904109278041092560420
:102A80001092550410925104109252041092530463
:102A9000109254041092500410924F041092740437
:102AA00010927504109276041092770410927304B9
:102AB00010926F04109270041092710410927204BC
:102AC00088EE93E0A0E0B0E0809321029093220290
:102AD000A0932302B093240210926B0410926C0412
:102AE00010926D0410926E041092670410926804A4
:102AF0001092690410926A041092660410926504A0
:102B000081E080932002109264041092630410927A
:102B10006204109261041092600490E080E00895D5
:102B20008091620490916304892B19F580912002B1
:102B3000882351F080916404811106C081E0809364
:102B4000500480934F040895209164043091200232
:102B500081E090E0332311F090E080E030E08223C8
:102B60009323892B21F01092500481E0EACF109238
:102B70004F04089582E090E0FA01918380838FEF03
:102B80009FEF0895CF93DF93EA01009711F00E9421
:102B9000FA251982188290E080E0DF91CF910895A4
:102BA000DB01009719F48FEF8C9308952EEF2C938F
:102BB000FC013F96EF30F10508F034C08827EC5156
:102BC000FA4E8F4F0C941A3810160E160C160A1661
:102BD00008160416061602160016FE15FB15F71544
:102BE000F315F915121680E311968C93089589E276
:102BF000FBCF82E2F9CF11961C92089583E2F4CFC5
:102C000081E2F2CF81E1F0CF87E2EECF8AE2ECCF32
:102C100080E1EACF84E2E8CF88E2E6CF86E2E4CF43
:102C200081E3E2CF80E2E0CF809186049091870437
:102C30000895909387048093860408958091850475
:102C4000089590918504892B809385040895982F89
:102C500090958091850489238093850408958091BF
:102C600084040895809182049091830408956115ED
:102C7000710559F0FB0130E020E070E060E02417BE
:102C8000350719F06115710511F0CB010895A08188
:102C9000B181A817B90709F4BF012F5F3F4F3696DE
:102CA000EECF8091880481111CC041D247D290930D
:102CB0007B0480937A040E946C1F0E947E1F909375
:102CC0007F0480937E040E9492220E949922909316
:102CD0007D0480937C0481E08093880490E080E010
:102CE000089584EF9FEF08958F929F92AF92BF92C5
:102CF000CF92DF92EF92FF920F931F93CF93DF93C8
:102D000000D000D000D01F92CDB7DEB71A8619864A
:102D100018861F821E821D821C821B821A821982C3
:102D20008091880407EF1FEF882309F48BC08E0180
:102D30000D5F1F4F9E012B5F3F4FAE01495F5F4FFD
:102D4000BE01675F7F4F90E080E00E9416248C01F7
:102D5000009721F00596029708F0C7C089859A85EB
:102D6000009709F4EFC0ED80FE802B813C812E0D91
:102D70003F1D4F8158854217530708F4E3C0E80E02
:102D8000F91ED7014C912091860430918704232BA2
:102D900009F494C0413F08F069C08CE1840F8D3084
:102DA00008F483C08DE2840F803108F481C088E389
:102DB000840F8B3008F47FC090EDC92E95E1D92E99
:102DC000EAEBF5E16D817E81AE014F5F5F4F898552
:102DD0009A8519955C01C114D104A1F189809A806A
:102DE0008114910479F18B819C818815990508F4EF
:102DF00084C010E000E04B815C8170E060E0C701BE
:102E00000E94443801151105E9F449815A81698508
:102E10007A858D819E81680F791FC501F60119950C
:102E2000E980FA800D811E812F81388549855A8578
:102E30006FEF7FEF81E090E00E94B1238C01892B3E
:102E400009F053C0C8012A960FB6F894DEBF0FBE32
:102E5000CDBFDF91CF911F910F91FF90EF90DF9049
:102E6000CF90BF90AF909F908F90089530E020E07A
:102E7000220F331FF901E658FB4F0190F081E02D3E
:102E8000309709F499CF842F90E01995009709F4B1
:102E900093CFDC011296ED91FC9113971496CD908F
:102EA000DC90309709F08ECF1EC021E030E0E0CFFB
:102EB00022E030E0DDCF23E030E0DACFD12CC12CAE
:102EC000E2ECF5E14F3F09F07DCFE0917A04F0911B
:102ED0007B04309719F404EF1FEF0CC08FEF90E0E4
:102EE00019950097B1F604EF1FEF89859A85009731
:102EF00009F4A8CF0E94FA25A5CF0E94E0248C01F6
:102F000089859A850E94FA2570E060E0C4010E94DC
:102F1000792498878F830E94AE239E838D836F814F
:102F200078856115710559F0C8010E947E279A873E
:102F3000898706EF1FEF892B09F05BCF5CCF08EF85
:102F40001FEF59CF08EF1FEFD0CF20918804211138
:102F5000DAC787EF9FEF08958091860490918704E8
:102F600008950E949E220E94F821EDD0EAE7F4E045
:102F700088E0DF011D928A95E9F71092880490E0BD
:102F800080E0089586E090E0FA019183808390E0EC
:102F900080E0089547E050E06EEA72E068CEDF928C
:102FA000EF92FF920F931F93CF93DF938A01EC016F
:102FB000C60FD71FE0908C04F0908D04D9800E943A
:102FC000C824D816190678F082E090E0F8019183C1
:102FD00080838EEF9FEFDF91CF911F910F91FF9034
:102FE000EF90DF900895EF2841F482E090E0F8013F
:102FF0009183808384EF9FEFEECF898180938B0450
:1030000090E00196F8019183808390E080E0E3CF27
:10301000CF93DF93EA010E940B21882321F00E94C5
:10302000D5240E940C2182E090E0998388838BEF65
:103030009FEFDF91CF910895CF93DF93EB0186E06F
:10304000FB0111928A95E9F78FEF8883F7DD898379
:1030500006DE8A8307DE9D838C83DF91CF910895FE
:10306000CF93DF93EA010E940E21811109C082E013
:1030700090E09983888385EF9FEFDF91CF9108954A
:1030800090E080E0D6DD81E090E09983888390E055
:1030900080E0F3CF0F931F93CF93DF93EA018C016E
:1030A000060F171F0E940E2181110BC082E090E0D5
:1030B0009983888385EF9FEFDF91CF911F910F91C7
:1030C0000895F8018181823038F082E090E09983A0
:1030D00088838EEF9FEFF0CF81E090E0AADD88E05B
:1030E00090E09983888390E080E0E6CFCF93DF93F0
:1030F0000097D1F4EB01FB01329686E0DF011D92CF
:103100008A95E9F78FEF888385E089831A820E9488
:10311000C8248B830E94C7249D838C8381E08E8387
:103120008F83DF91CF910895DF91CF9139CD8AECD4
:1031300097E190938A04809389040895809189048B
:1031400090918A04089510928A0410928904089537
:1031500080918C0490918D040895411105C06115F2
:1031600071058105910561F060938C0470938D0465
:1031700080938E0490938F044093900481E008958F
:1031800080E00895FF920F931F93CF93DF938A01FE
:10319000EC01C60FD71FF9800E94C824F816190643
:1031A00068F082E090E0F801918380838EEF9FEFDA
:1031B000DF91CF911F910F91FF9008956C817D81D8
:1031C0008E819F814B81C9DF811108C082E090E030
:1031D000F8019183808384EF9FEFEACF8981809308
:1031E0008B0490E00196F8019183808390E080E069
:1031F000DFCFCF93DF93EA01FC01E60FF71F648175
:103200007581868197814381A8DF811109C082E0A1
:1032100090E09983888384EF9FEFDF91CF910895A9
:1032200081E090E09983888390E080E0F6CFECE83D
:10323000F4E04081518162817381480F511D611D0D
:10324000711D40835183628373830895CF93C0912E
:103250008B044C2F50E060918C0470918D0401968A
:103260000E943B388C2FE3DF10928B04CF9108959E
:10327000009799F480918C0490918D042FEFFB01BD
:103280002083892B59F020918B0430E02F5F3F4F32
:103290002417350719F4CB01D9CF82CC08950097B4
:1032A00099F480918C0490918D042FEFFB01208381
:1032B000892B59F020918B0430E02F5F3F4F24176A
:1032C000350719F4CB01C2CF6BCC08952DE0AC01CA
:1032D000249FC001259F900D1124E0919504F09149
:1032E0009604E80FF91F238134812250310981E0CF
:1032F0002230310508F080E008950F931F93CF939B
:10330000DF930091970410919804D0E0C0E080E032
:103310000C171D0749F491E0811190E0892FDF918E
:10332000CF911F910F9108958111F5CFCE01CEDF7E
:103330002196EECFA0919504B0919604109729F1B3
:10334000209197043091980482179307F0F45DE080
:10335000589F9001599F300D1124A20FB31FED917A
:10336000FC911197309789F012968C91681768F448
:1033700085E0689FE00DF11D112480819181892BEA
:1033800021F081E09281491708F080E00895EF92E2
:10339000FF920F931F93CF93DF93EA01FC01E60F97
:1033A000F71F02811381E480F5804F2D6E2DC80137
:1033B000C1DF81110DC082E090E0998388838EEF98
:1033C0009FEFDF91CF911F910F91FF90EF900895A4
:1033D000C8017CDF882339F082E090E099838883FC
:1033E00088EF9FEFEECF10932C0200932B02E09218
:1033F0002D02F0922E0281E090E09983888390E084
:1034000080E0DFCFCF92DF92EF92FF920F931F9376
:10341000CF93DF937A01EC01C60FD71FC0902B0228
:10342000D0902C0200912D0210912E02412F602F7E
:10343000C60180DF811110C082E090E0F701918326
:1034400080838AEF9FEFDF91CF911F910F91FF90C3
:10345000EF90DF90CF900895C60138DF882341F0C8
:1034600082E090E0F7019183808388EF9FEFEBCFBC
:103470004C815D816E817F819A8189818F3F41F08E
:1034800082E090E0F701918380838EEF9FEFDBCFA6
:10349000EDE0EC9D9001ED9D300D1124E09195043F
:1034A000F0919604E20FF31F0190F081E02D25E0EA
:1034B000029FE00DF11D11240190F081E02D27E025
:1034C000129FE00DF11D1124808391838B818283F3
:1034D00043835483658376831F5F10932E0281E0BC
:1034E00090E0F7019183808390E080E0ACCFEF9291
:1034F000FF920F931F93CF93DF937A018C01060FF6
:10350000171FC0919504D0919604209781F021E077
:1035100030E0F801828193814091970450919804A2
:103520008417950710F030E020E0232B71F482E03F
:1035300090E0F701918380838EEF9FEFDF91CF9131
:103540001F910F91FF90EF9008954DE0489F9001DB
:10355000499F300D1124C20FD31FB8DE882341F0DC
:1035600082E090E0F7019183808388EF9FEFE6CFC0
:10357000F8012481358120383105C8F68781811111
:10358000D6CF4181842F90E08F7E009741F082E07A
:1035900090E0F7019183808386EF9FEFCFCF4F8339
:1035A0003E832D83268128871986223010F421E05E
:1035B000288721E030E0F70131832083BFCF88E006
:1035C00090E0FA019183808390E080E00895FB0110
:1035D0008FEF808381E181838FEF9FEF93838283DD
:1035E00080E890E095838483168217820895FB011A
:1035F0008FEF808391E0918382839383848384E33C
:10360000858381E090E09783868308954BE050E0C6
:1036100068ED72E02CCB8F929F92BF92CF92DF9297
:10362000EF92FF920F931F93CF93DF93EA01FC0178
:10363000E60FF71F828193810481B580E0919504A4
:10364000F0919604309791F482E090E0998388831A
:103650008CEF9FEFDF91CF911F910F91FF90EF9033
:10366000DF90CF90BF909F908F9008952091970406
:10367000309198048217930738F082E090E09983A4
:1036800088838EEF9FEFE6CF2DE0289F6001299F72
:10369000D00C1124EC0DFD1DE080F180E114F1044B
:1036A00099F28281081748F785E0089F800111246C
:1036B000E00EF11EF70180819181892B29F6BB2054
:1036C000E1F2F7E0BF9E40011124C4010E94AC2545
:1036D000F70191838083E0919504F0919604EC0DBD
:1036E000FD1D0190F081E02DE00FF11F808191819F
:1036F000009739F482E090E0998388838DEF9FEF03
:10370000A9CFA40170E060E00E9444388091950444
:1037100090919604C80ED91EF60180819181080F00
:10372000191FF801B28281E090E09983888390E0CC
:1037300080E090CFAF92BF92CF92DF92FF920F9333
:103740001F93CF93DF93EA01FC01E60FF71F8281FD
:103750009381F48000919504109196040115110550
:1037600081F482E090E0998388838CEF9FEFDF9172
:10377000CF911F910F91FF90DF90CF90BF90AF90AE
:10378000089520919704309198048217930738F098
:1037900082E090E0998388838EEF9FEFE8CF2FEF50
:1037A0002F0D2C3FA8F72DE0289F6001299FD00CFA
:1037B00011240C0D1D1DF80180819181892B89F642
:1037C000F5E0FF9E50011124C5010E94AC25F801CF
:1037D00091838083E0919504F0919604EC0DFD1D9A
:1037E00080819181009739F482E090E09983888309
:1037F0008DEF9FEFBCCFA50170E060E00E944438E0
:10380000E0919504F0919604EC0DFD1DF28281E0AB
:1038100090E09983888390E080E0A9CFCF92DF92F7
:10382000EF92FF920F931F93CF93DF93860F971F13
:10383000FC01028113818091950490919604892B5B
:1038400081F082E090E0FA01918380838CEF9FEF1A
:10385000DF91CF911F910F91FF90EF90DF90CF906C
:103860000895C801B0E0A0E00197A109B1098F3F18
:103870009F4FA105B10540F082E090E0FA019183ED
:1038800080838EEF9FEFE4CF7A018DE0809F60010F
:10389000819FD00C1124C6010E94AC25EC01009739
:1038A00041F482E090E0F701918380838DEF9FEFF8
:1038B000CFCFA60170E060E00E944438D093960418
:1038C000C0939504109398040093970490E080E0CF
:1038D0002FEF3FEF8017910741F481E090E0F7016F
:1038E0009183808390E080E0B3CF3C872B87019663
:1038F0002D96F0CFCF92DF92EF92FF920F931F930E
:10390000CF93DF93EC01D12CC12C10E000E0F12C1F
:10391000E12C8A818017110609F0BCF4AE01455FE5
:103920005F4F63E070E0C7010E942626009721F0F8
:103930002FEF3FEF3C872B87DF91CF911F910F91A6
:10394000FF90EF90DF90CF900895E881F981EC0D22
:10395000FD1D23813481C90101960115110519F45A
:103960004F8144FD049661E070E0C3D7E816F90684
:1039700008F47C010F5F1F4F85E0C80ED11CC9CF32
:10398000F894209193043091940481E0211531053D
:1039900009F080E0232B09F0789408954F925F920C
:1039A0006F927F928F929F92AF92BF92CF92DF924F
:1039B000EF92FF920F931F93CF93DF933C01660E1C
:1039C000771EF301828193814C01B12CA12CC0910F
:1039D0009504D0919604209769F021E030E0609141
:1039E0009704709198048617970710F030E020E054
:1039F000232BC1F482E090E0FA01918380838EEF63
:103A00009FEFDF91CF911F910F91FF90EF90DF908B
:103A1000CF90BF90AF909F908F907F906F905F906E
:103A20004F90089580922F0290923002A09231021E
:103A3000B09232026DE0689F9001699F300D1124B1
:103A4000C20FD31FF3018181833040F082E090E008
:103A5000FA019183808386EF9FEFD3CF2A012B81D8
:103A60003C81232BF1F4288139819F8191FF2EC065
:103A7000232B09F464C020919A049A81422F490FA4
:103A80005527551FBA0141E050E06138710514F027
:103A900050E040E0452B09F452C02A87920F9093E2
:103AA0009A048150823008F476C06ADF882309F4D2
:103AB000C7C0F3018181813009F480C008F470C06F
:103AC000823009F4B5C090E080E090C0232BB9F1BA
:103AD000209199049A81E22FE90FFF27FF1F41E00F
:103AE00050E0ED3FF10514F050E040E0452B39F196
:103AF0002A87920F90939904D4CFA081B181A20F0D
:103B0000B31F11966C91060F111D0196295F3F4F4F
:103B10008417950794F3C114D104C9F48F8184FFED
:103B200016C035D721E0A8014B5F5F4F841795077A
:103B300008F420E0A7014B5F5F4F21110EC082E027
:103B400090E0F2019183808387EF9FEF5ACF1FD7D8
:103B500021E0A8014F5F5F4FE9CF88819981E80E8E
:103B6000F91EF70114830383FFEFCF1ADF0A7A01EE
:103B70008A818C151D0409F00CF497CFE881F98136
:103B8000EE0DFF1D428150E030E020E010E000E04B
:103B900090E080E0BDCFF12CE12CD12CC12CE8CFFE
:103BA00081E090E09C838B83A8DB882309F48BCF92
:103BB00081E090E03ED880E44AD885CF8B859C8513
:103BC000019651F083E090E09C838B8382E090E04B
:103BD00030D880E436D877CF22E082169104A10451
:103BE000B1047CF4CE0186DE009761F3789422E084
:103BF00030E0F20131832083892BF9F08DEF9FEFC4
:103C000000CF2D813E8180912502909126022817B8
:103C10003907C1F66091290270912A02AE01455F11
:103C20005F4F80912702909128020E943D27DCCFB0
:103C300082E090E09C838B8346CF90E080E0E1CEF1
:103C400082E090E0F2019183808385EF9FEFD9CEEF
:103C50008F929F92AF92BF92CF92DF92EF92FF929C
:103C60000F931F93CF93DF93EA018C01060F171F69
:103C7000F8018181833098F082E090E09983888315
:103C800086EF9FEFDF91CF911F910F91FF90EF9003
:103C9000DF90CF90BF90AF909F908F9008958091CC
:103CA000950490919604892B61F081E090E0209139
:103CB000970430919804232B11F490E080E0892B35
:103CC00039F482E090E0998388838EEF9FEFDACF1A
:103CD00057DE882309F4D6C0F8018181813009F4C8
:103CE0008CC0E8F0823099F42091970430919804C8
:103CF000E0919504F091960490E080E041E050E07E
:103D00002817390709F0B4C0F8DA811117C0789480
:103D100081E090E09983888390E080E0B3CF2091A8
:103D2000970430919804E0919504F091960490E006
:103D300080E041E050E02817390741F481E090E04D
:103D40000E94191680E40E942716E1CF63817481D6
:103D5000672B11F05483438301963D96ECCFE0919D
:103D60009504F0919604E00FF11F238134812230F5
:103D7000310569F4238534852F3F3F4F41F422E01C
:103D8000C216D104E104F1040CF5CF01B3DD4FEF0D
:103D9000C41AD40AE40AF40A035F1F4F409197043F
:103DA0005091980470E060E0C416D506E606F70668
:103DB00064F50097A1F27894892B09F4A9CF82E0E9
:103DC00090E0998388838DEF9FEF5CCF458156818A
:103DD000209125023091260242175307C1F6AF0108
:103DE000455F5F4F6091290270912A0280912702FE
:103DF000909128020E943D27CACF10E000E090E099
:103E000080E0C12CD12C7601C9CF0097A1F610E03B
:103E100000E0812C912C540183E0E82EF12C1AC093
:103E2000E0919504F0919604E00FF11F8381948155
:103E3000029749F4F482E38282E090E00E9419162E
:103E400080E40E9421168FEF881A980AA80AB80AFF
:103E5000035F1F4F8091970490919804B0E0A0E019
:103E600088169906AA06BB06DCF290E080E0A3CF94
:103E7000638174816230710511F454834383019628
:103E80003D963ECF82E090E09983888385EF9FEF57
:103E9000F9CE0097B9F48FEFFB01808320912F02B8
:103EA000309130024DE0429FC001439F900D11249C
:103EB000E0919504F0919604E80FF91F8285FB01CB
:103EC000818308950C94D01588E090E0FA019183E5
:103ED000808390E080E008951092940410929304FF
:103EE000E5E9F4E086E0DF011D928A95E9F786E0D6
:103EF0009BE19093920480939104089580919104A2
:103F00009091920408952F923F924F925F926F92F8
:103F10007F928F929F92AF92BF92CF92DF92EF9259
:103F2000FF920F931F93CF93DF93CDB7DEB76297C6
:103F30000FB6F894DEBF0FBECDBFF8942091930466
:103F4000309194042F5F3F4F309394042093930457
:103F5000789420919504309196043B832A83232BF7
:103F600009F456C12091970430919804232B09F449
:103F70004FC14D875E876F87788B9C878B878A813F
:103F80009B819A8B898BD12CC12C198210E000E087
:103F90008091970490919804C816D90618F4398135
:103FA000332329F1F894809193049091940401971C
:103FB00090939404809393047894C80162960FB60A
:103FC000F894DEBF0FBECDBFDF91CF911F910F914F
:103FD000FF90EF90DF90CF90BF90AF909F908F9029
:103FE0007F906F905F904F903F902F900895B60113
:103FF00090E080E02AD38887A989BA8917968C91A6
:10400000179781FD8DC013968D919C9114970397FE
:1040100009F086C01596ED91FC91FF83EE832B8508
:104020003C85E217F30709F07BC0712C612C512C01
:10403000412C63C093D39A87898710E041145104BF
:1040400031F4A989BA8917961C9112951170A98922
:10405000BA89ED91FC91E60DF71D23803480111192
:1040600069C0BFEF2B1A3B0A61E070E0C10141D487
:104070005C01A989BA891B968D919C918F3F980705
:1040800009F45CC0B5013AD74C01009709F4BBC0F4
:10409000E985FA85E80FF91FA989BA891A968C91E2
:1040A000840D808311114DC08F010F5F1F4F8091D0
:1040B000250290912602AE81BF81A817B90709F0A9
:1040C0009DC081E090E0B885BB2311F090E080E0D6
:1040D000710109851A859501A401B6019195819513
:1040E00091093FD38C01892B11F0C40183D58FEF47
:1040F000481A580A95E0690E711CA989BA89129666
:104100008C918415150429F024F0B981BB2309F49E
:1041100091CFE885EE2321F0B60190E080E097D2C0
:10412000FFEFCF1ADF0A29893A89235F3F4F3A8B85
:10413000298B2ECFE5E02E0E311C96CFC5010CD574
:10414000A3CF8D859E85AF85B88981839283A38314
:10415000B4838F010B5F1F4FAACFE080F180EC8109
:10416000FD81EE0EFF1ED70113966D917C91149781
:104170008C918F3FE1F1E1E0F0E002C0EE0FFF1F14
:104180008A95E2F7CF01092E000CAA0BBB0BFB01AD
:10419000408151816281738184239523A623B723B3
:1041A00021E0892B8A2B8B2B09F420E0D8012C935A
:1041B000D70111968C91080F111DEA81FB81319670
:1041C000FB83EA832C813D81295F3F4F3D832C8314
:1041D000A989BA89ED91FC91E60DF71D82812A81AA
:1041E0003B818217130611F00CF0B7CF6ACFF701AD
:1041F000418150E0C8010E943B38DACF1D821C8209
:104200001B821A82E5CF31E0398306EF1FEF6FCFB3
:1042100010E000E0C7CEB4CB789408952F923F927F
:104220004F925F926F927F929F92AF92BF92CF9286
:10423000DF92EF92FF920F931F93CF93DF9300D003
:1042400000D0CDB7DEB70091950410919604992463
:1042500093940115110509F43EC0A0909704B09005
:1042600098048EDB982E8823B1F110929604109258
:104270009504109298041092970410929904109249
:104280009A048FEF9FEFDC0180932F02909330020E
:10429000A0933102B093320278947BD31E830D83B6
:1042A000C12CD12C7601C501B0E0A0E089839A83AE
:1042B000AB83BC8322242A94322C89819A81AB81DE
:1042C000BC81C816D906EA06FB06F4F0C80192D4F0
:1042D00080E40E942716892D26960FB6F894DEBF3B
:1042E0000FBECDBFDF91CF911F910F91FF90EF9047
:1042F000DF90CF90BF90AF909F907F906F905F9036
:104300004F903F902F900895AD81BE8192E0C916E5
:10431000D104E104F1040CF51B968D919C918F3F23
:10432000980709F02BD5ED81FE8134862386ED8137
:10433000FE8180819181B12CA12C412C512C320124
:10434000892B59F5BFEFCB1ADB0AEB0AFB0AED818B
:10435000FE813D96FE83ED83B0CF15962D913C9165
:104360001697809125029091260228173907F9F6B1
:104370001B968D919C91B0D5DACF8A0D9B1DDC01E7
:104380008D919C91009709F035D4BFEF4B1A5B0AD1
:104390006B0A7B0AE5E0AE0EB11CAD81BE818D914A
:1043A0009C91119712964C9150E070E060E0441699
:1043B0005506660677060CF31DD4C4CFCF93DF9362
:1043C000EA012CDF811109C082E090E099838883A3
:1043D00085EF9FEFDF91CF91089581E090E00E94FB
:1043E000191681E090E09983888390E080E0F2CF15
:1043F00015DF1092920410929104089542E050E06B
:104400006AE173E00C943716FF920F931F93CF93DA
:10441000DF938A01EC01C60FD71FF980B9D2089744
:10442000F816190671F068F082E090E0F8019183C7
:1044300080838EEF9FEFDF91CF911F910F91FF90BF
:1044400008956C817D818E819F814B810E94AD1882
:10445000811108C082E090E0F8019183808384EFAD
:104460009FEFE9CFF9800E94A8184F2D50E0BE01C0
:10447000685F7F4F0E943B3889810E94171981E055
:1044800090E0F8019183808390E080E0D4CFDF92C8
:10449000EF92FF920F931F93CF93DF938A01EC016A
:1044A000C60FD71F0E94A8187C01D98071D2DD20C9
:1044B00059F0029721E030E0D816190619F010F0F3
:1044C00030E020E0232B79F482E090E0F801918342
:1044D00080838EEF9FEFDF91CF911F910F91FF901F
:1044E000EF90DF900895EF2841F482E090E0F8012A
:1044F0009183808384EF9FEFEECFF9800E94A8180C
:104500004F2D50E0BE016E5F7F4F0E943B38898186
:104510000E94171981E090E0F8019183808390E078
:1045200080E0D9CF8EEF91E290939C0480939B041E
:10453000089580919B0490919C0408950895FC0136
:1045400011821082938382830895DB011D921C9255
:10455000DC011296ED91FC911397718360831396A1
:104560007C936E9312970895FC0180819181DB0109
:104570008D939C93A081B181109741F08D919C9176
:1045800091838083892B11F4F383E2830895FC01E6
:1045900080819181DB018D939C93892B11F473832E
:1045A0006283718360830895FC011182108293837A
:1045B00082830895CF93DF931F921F92CDB7DEB70A
:1045C0001A821982F894BE016F5F7F4F82EA94E0ED
:1045D000CBDF89819A81009709F00CD389819A8178
:1045E000892B89F7BE016F5F7F4F86EA94E0BCDFBD
:1045F00089819A81009709F0FDD289819A81892B5E
:1046000089F778940F900F90DF91CF910895CF9311
:10461000DF931F921F92CDB7DEB71A821982F894EA
:10462000BE016F5F7F4F8EE994E09EDF89819A81A2
:10463000009709F0DFD289819A81892B89F77894D4
:104640000F900F90DF91CF91089581E0089590E051
:1046500080E00895EF92FF920F931F93CF93DF9323
:104660001F921F92CDB7DEB71A82198280919D04E6
:1046700007EF1FEF8823A1F1F894BE016F5F7F4F12
:1046800086EA94E071DF789489819A81EE24E3943C
:10469000F12C892B51F4F894BE016F5F7F4F82EAB1
:1046A00094E062DF7894F12CE12C89819A810EEFFD
:1046B0001FEF0097A9F0FC014281538164E070E094
:1046C0001DD68C01892B61F0F89469817A81C7012C
:1046D000880F991F880F991F8E559B4F58DF78942C
:1046E000C8010F900F90DF91CF911F910F91FF9014
:1046F000EF9008950F931F93CF93DF9300D01F92F5
:10470000CDB7DEB71C821B821A82198280919D046C
:1047100007EF1FEF8823C1F0AE014D5F5F4F64E0EC
:1047200070E0CE0101965DD68C01892B69F4E98198
:10473000FA818B819C8193838283F89469817A8149
:104740008EE994E002DF7894C8010F900F900F90EB
:104750000F90DF91CF911F910F91089562D704962A
:1047600008958F929F92AF92BF92CF92DF92EF9275
:10477000FF920F931F93CF93DF931F921F92CDB79A
:10478000DEB71A821982BC016F5F7F4F63307105FB
:1047900098F0AA24AA94BA2CC5010F900F90DF912B
:1047A000CF911F910F91FF90EF90DF90CF90BF902E
:1047B000AF909F908F9008954115510551F3480196
:1047C00059018A016C01CADF8815990511F7E114B6
:1047D000F104F9F28E0D9F1DA816B906D0F2809152
:1047E0009D048823F1F0F894B50164507109970194
:1047F000AE014F5F5F4FC801049688D65C01892BDC
:1048000071F489819A81F80193838283C601880FAC
:10481000991F880F991FB8018E559B4F96DE78948B
:10482000BBCF87EFA82EBB24BA94B6CFAF92BF926E
:10483000CF92DF92EF92FF920F931F93CF93DF936C
:104840001F921F92CDB7DEB71A821982892B09F009
:1048500047C06115710509F443C04115510509F4BC
:104860003FC02115310509F43BC001151105C1F107
:1048700080919D048823B9F179016A015B01F89464
:10488000BE016F5F7F4F8EE994E06EDE7894898180
:104890009A81009759F1DC0112966D917C91A801E3
:1048A00004964DD68C01E981FA81D501ED93FC93F4
:1048B000828193810496F601918380834FDFD70133
:1048C0008D939C93C8010F900F90DF91CF911F9112
:1048D0000F91FF90EF90DF90CF90BF90AF90089531
:1048E0000FEF1FEFEFCF07EF1FEFECCF0EEF1FEF34
:1048F000E9CFCF93DF93EC01672B71F49BD68C1734
:104900009D0760F08ED62496C80FD91F8DD68C0FC8
:104910009D1FDF91CF9108958AD6F1CF90E080E07E
:10492000F8CF0F931F93CF93DF9320919D04211114
:104930002BC08B01EC0182EA94E001DE86EA94E070
:10494000FEDD8EE994E0FBDD86D00097C1F472D6DF
:1049500070E060E0CEDF43E352E062E070E076D1E9
:10496000009769F4809133029091340275D6B801B2
:10497000CE01AAD4009719F421E020939D04DF9181
:10498000CF911F910F91089584EF9FEFF8CF4FC6FD
:1049900051C6CF93DF9351D6EC01892B11F40ADE77
:1049A00036DECE01DF91CF910895CF93DF9345D6C8
:1049B000EC01892B09F4FEDDCE01DF91CF91089542
:1049C00080913302909134020895CF93DF938091C8
:1049D0009D04D0E0C0E08823D1F043D6EC01892BC0
:1049E000B1F4E8DD14DE8091330290913402C6D137
:1049F000D5D2EC01892B59F482EA94E0D5DD86EA20
:104A000094E0D2DD8EE994E0CFDD10929D04CE01DA
:104A1000DF91CF910895CF93DF930097A1F4DF91B9
:104A2000CF910895EC011A821982A883309711F072
:104A3000928381832F5F3F4FFC01860F971F4217A0
:104A4000530781F7ECCF30E020E0F0E0E0E0AFEF9B
:104A50006F5F7F4FF4CFAF92BF92CF92DF92EF9212
:104A6000FF920F931F93CF93DF9387EC95E07C0128
:104A70002CEFE22286E2C82E83E0D82E9CE2A92EFB
:104A800093E0B92EC6E0D6E08E01D6014D915D913E
:104A90006D01F501619171915F01D8011196FC9250
:104AA000EE9215965C934E93149713965C934E93E7
:104AB000129717967C936E9316979B012F5F3F4F2B
:104AC000249FC001259F900D349F900D11241996AD
:104AD0009C938E931897C7019EDFF801808591857E
:104AE000E80EF91E065F1F4FFCE2CF16F3E0DF066B
:104AF00061F6ECEAF4E088E191E0DF019C011D92AF
:104B000021503040E1F71092AB041092AA0484E2E5
:104B100096E01F8E1E8E1BA21AA219A218A21DA219
:104B20001CA21FA21EA22A968C179D0791F7109215
:104B3000030610920206109205061092040690E0F9
:104B400080E0DF91CF911F910F91FF90EF90DF9068
:104B5000CF90BF90AF900895009799F1F894893065
:104B6000910550F48091080690910906892B39F03F
:104B700020E090E080E018C08131910550F48091F0
:104B8000120690911306892B31F021E081E090E02C
:104B90000BC08197A8F480911C0690911D06892B6B
:104BA00079F022E082E090E0EAE0E89FD001E99F1E
:104BB000B00D1124AA5FB94F8D919C91009721F4FB
:104BC000789490E080E00895E29FF0011124EA5F7C
:104BD000F94FDC0111964D915C91518340834281E4
:104BE00053814150510953834283FC012193CF01EA
:104BF00078940895009749F1DC018E91863041F454
:104C0000E0910406F09105063097F9F0CD01199472
:104C10008630D8F4282F30E0F8948FEF8C938AE018
:104C2000829FF001839FF00D1124EA5FF94F80818C
:104C3000918112969C938E931197B183A083828168
:104C4000938101969383828378940895CF92DF9223
:104C5000EF92FF920F931F93CF93DF939C018FEA04
:104C600094E08C7F4115510509F485C0211531056B
:104C700009F481C06115710509F47DC08A01AB0199
:104C8000B9016D5F7F4F6C7F9B012F5F3F4F249F6A
:104C90007001259FF00C349FF00C1124F894E6E08D
:104CA000F6E023E030E0E901A6A1B7A1C68CD78CDD
:104CB000CD2809F054C0109709F03CC0C090AA0458
:104CC000D090AB0425E131E02C193D092E153F05AC
:104CD00030F47894CFEFDFEF86EF9FEF1FC02AE02C
:104CE0002C9FF0012D9FF00D1124EA5FF94F918365
:104CF0008083558344835383428377836683F1861D
:104D0000E08689DEEC0CFD1CF092AB04E092AA0474
:104D10007894CF3FDC0701F390E080E0F801D18385
:104D2000C083DF91CF911F910F91FF90EF90DF90A3
:104D3000CF900895AE15BF0590F02AE02C9FF001AA
:104D40002D9FF00D1124EA5FF94F918380835583E5
:104D5000448353834283778366835DDED9CF8A0F92
:104D60009B1F2F5F3F4F3A962630310509F09BCFAE
:104D7000CFEFDFEFCDCF8FEF9FEFD3CFFF920F932A
:104D80001F93CF93DF939C012350310923303105CA
:104D900008F070C0EC01F89485E09AE09C9FD00187
:104DA0009D9FB00D1124A25FB94F082F10E0909F76
:104DB000F001919FF00D1124EA5FF94F20813181BC
:104DC000C017D10714F1FF24F394232B41F52AE0F7
:104DD000209FF001219FF00D1124EA5FF94F80918F
:104DE000AA049091AB0440855185841B950B909348
:104DF000AB048093AA042C9FF0012D9FF00D112489
:104E0000EA5FF94F118610861CC0232B39F42D91CF
:104E10003C911197232BA9F48150C7CFF12C8AE044
:104E20008C9FF0018D9FF00D1124EA5FF94F4085B2
:104E3000518570E060E0808191810E944438F110DA
:104E4000C6CF8AE08C9FF0018D9FF00D1124EA5FA0
:104E5000F94F1182108215821482138212821782F6
:104E60001682789490E080E0DF91CF911F910F91AE
:104E7000FF9008958FEF9FEFF7CF4115510549F14E
:104E8000009739F16115710521F1F894209102061E
:104E900030910306232BB9F42091040630910506C6
:104EA000232B89F4909303068093020670930506E2
:104EB00060930406789426E030E090E080E0FA0108
:104EC00031832083089578942FEF3FEF86EF9FEF93
:104ED000F6CF8FEF9FEF0895069769F4F89410923C
:104EE00003061092020610920506109204067894AA
:104EF00090E080E008958FEF9FEF089561157105B0
:104F000019F4F0E0E0E011C08630910581F4E09101
:104F10000206F09103063097A1F3CB010196199593
:104F2000009779F3FC0186E08193CF0108959C01FD
:104F3000235031092330310520F72AE0289FD00182
:104F4000299FB00D1124AA5FB94F2D913C91119763
:104F5000232BB9F216962D913C91179726173707F8
:104F600080F2F89412962D913C91139721153105FA
:104F700029F0ED91FC911197309711F47894C1CFFD
:104F80004181528111965C934E93215031091396C1
:104F90003C932E93129781937894C7CFE4ECF5E07D
:104FA0008EE3DF011D928A95E9F7ECEAF4E088E1EF
:104FB00091E0DF019C011D9221503040E1F71092F9
:104FC000AB041092AA04E6E0F6E08CE3DF011D9248
:104FD0008A95E9F7E2E0F6E084E0DF011D928A9528
:104FE000E9F790E080E00895CF93DF93C091350218
:104FF000D0913602CF3FDC0759F421D4909336028A
:105000008093350297FF09C0D0933602C0933502D2
:1050100084EF9FEFDF91CF91089590E080E0FACF89
:105020008230910528F48093420690E080E0089554
:105030008FEF9FEF08954F925F926F927F92AF92A2
:10504000BF92CF92DF92EF92FF920F931F93CF9375
:10505000DF931F921F92CDB7DEB71A821982009795
:1050600009F479C06115710509F475C02091350204
:105070003091360207EF1FEF2F3F3F4F09F445C035
:105080006B015C01412C512C3201F12CE12C10E020
:1050900000E09E012F5F3F4FA6014E195F09B50149
:1050A0006E0D7F1D80913502909136022CD4892B94
:1050B00009F04BC089819A81009741F4E114F10411
:1050C00029F420914206222309F442C0E80EF91E79
:1050D000EC14FD04D0F480E8481684E858068EE10C
:1050E0006806710420F560E070E0CB010E940D328B
:1050F0002AE0420E511C611C711C0A3F4FEF14073D
:1051000021F0043F8FEF1807A1F4C8010F900F9012
:10511000DF91CF911F910F91FF90EF90DF90CF9093
:10512000BF90AF907F906F905F904F90089501EF88
:105130001FEF81E090E0013F2FEF120711F090E0A8
:1051400080E0892B09F4A5CFE0CF04EF1FEFDDCF7E
:105150000AEF1FEFDACF0FEF1FEFD7CF4F925F921B
:105160006F927F92AF92BF92CF92DF92EF92FF92B7
:105170000F931F93CF93DF931F921F92CDB7DEB78C
:105180001A821982009709F479C06115710509F432
:1051900075C0209135023091360207EF1FEF2F3F87
:1051A0003F4F09F445C06B015C01412C512C320189
:1051B000F12CE12C10E000E09E012F5F3F4FA60193
:1051C0004E195F09B5016E0D7F1D809135029091DA
:1051D00036024CD3892B09F04BC089819A81009704
:1051E00041F4E114F10429F420914206222309F448
:1051F00042C0E80EF91EEC14FD04D0F480E8481615
:1052000086E9580688E96806710420F560E070E0D8
:10521000CB010E940D322AE0420E511C611C711C10
:105220000E3F4FEF140721F0043F8FEF1807A1F452
:10523000C8010F900F90DF91CF911F910F91FF90B8
:10524000EF90DF90CF90BF90AF907F906F905F9086
:105250004F90089502EF1FEF81E090E0023F2FEFA3
:10526000120711F090E080E0892B09F4A5CFE0CF80
:1052700004EF1FEFDDCF0EEF1FEFDACF0FEF1FEFC1
:10528000D7CF80913502909136028F3F980749F031
:10529000CED2892B49F48FEF9FEF90933602809303
:1052A000350290E080E0089584EF9FEF0895FC01BF
:1052B000680F791F90E080E0E617F70709F408957A
:1052C0002191820F911DF8CF20914306211113C027
:1052D0008BDE009791F410924906109248061092C6
:1052E000470610924606109245061092440621E0A9
:1052F00020934306089584EF9FEF0895AF92BF92E5
:10530000CF92DF92EF92FF920F931F93CF93DF9391
:10531000009709F460C04630510508F45CC0209144
:105320004306C7EFDFEF222309F449C08C01060FC3
:10533000171FF801C080D180C114D10409F44EC0F8
:1053400096012A5F3F4F4217530708F447C07C017C
:10535000809148069091490693838283B6016C5FE1
:105360007F4F5801A60EB71EC801A1DFF50191833A
:10537000808364E070E0C8015EDEEC01892BF9F403
:1053800081E090E04DDEB601C801049654DEEC01E8
:10539000892B91F462E070E0C5014DDEEC01892BB0
:1053A00059F4C70127DC809148069091490601967F
:1053B000909349068093480690E080E031DECE016C
:1053C000DF91CF911F910F91FF90EF90DF90CF90E1
:1053D000BF90AF900895CFEFDFEFF1CFC9EFDFEFD0
:1053E000EECF6F927F928F929F92AF92BF92CF92A9
:1053F000DF92EF92FF920F931F93CF93DF9300D032
:105400001F92CDB7DEB7009709F47AC04115510558
:1054100009F476C02091430607EF1FEF222309F419
:105420004DC03A017B015C0164E070E0CE01019661
:1054300095DE8C01892B09F041C009811A81011583
:10544000110509F45AC0480186E0880E911CB70185
:10545000680D791D80913702909138024FDD6C0103
:10546000009709F450C0A70170E060E00E94443842
:1054700089819A81AB81BC81EC0CFD1CF701819381
:105480009193A193B1937F0181E090E0C9DDB801D0
:10549000C70164DE892B31F562E070E0C701800F3F
:1054A000911F5CDE8C01892BE9F490E080E0B8DD8F
:1054B000F501D182C082F30191828082C8010F90F0
:1054C0000F900F900F90DF91CF911F910F91FF9050
:1054D000EF90DF90CF90BF90AF909F908F907F9094
:1054E0006F90089590E080E09BDDF50111821082BD
:1054F000F30111821082C6017DDB09EF1FEFDECFC1
:105500000FEF1FEFDBCF06EF1FEFD8CF0097A1F013
:105510004115510589F02115310571F0F9013696D3
:105520006E177F0748F0DC012D933C93DA01ED9371
:10553000FC9390E080E008958FEF9FEF0895AF9285
:10554000BF92CF92DF92EF92FF920F931F93CF9370
:10555000DF93009709F45FC04115510509F45BC062
:105560006530710508F457C020914306C7EFDFEF9F
:10557000222391F1DC01CD90DC9011971296ED91F0
:10558000FC9196012A5F3F4FC9EFDFEF26173707DF
:1055900019F5C0914406D0914506209749F521E0C0
:1055A00030E030934506209344067A018C01F09355
:1055B0004706E09346065601B4E0AB0EB11CB501B8
:1055C00076DE0A0D1B1DF8012081318182179307B9
:1055D00029F5D701CD92DC92CE01DF91CF911F91B9
:1055E0000F91FF90EF90DF90CF90BF90AF90089514
:1055F00020914606309147062F5F3F4FCCEFDFEFFB
:10560000E217F30790F2CBEFDFEF2E173F0768F2B8
:10561000D0E0C0E0CACFCFEFDFEFDECFC3EFDFEFE8
:10562000DBCF84E090E0089582E090E008958CEF75
:105630009FEF089580E290E008951092490610923D
:1056400048061092470610924606109245061092A0
:10565000440690E080E008959093380280933702EA
:10566000089580914306882391F00BDE009789F41A
:10567000109249061092480610924706109246066C
:10568000109245061092440610924306089590E049
:1056900080E00895009749F06115710531F0FC0133
:1056A00011821082FB01118210820895F3CF83E0F2
:1056B0000E94483440914A0650914B0660914C0636
:1056C00070914D06181619066CF44F5F5F4F6F4FBF
:1056D0007F4F40934A0650934B0660934C0670935D
:1056E0004D0608954150510961097109F2CF60E0FA
:1056F00082E00E94DF3360E083E00E94DF3343E01A
:1057000050E067E57BE280E047C4CF93DF93EC0194
:1057100060914A0670914B0680914C0690914D061F
:10572000A0D2688379838A839B83DF91CF91089588
:10573000089540E855E260E070E090E080E000C04D
:105740008130910579F01CF4892B39F0089582306D
:10575000910561F0039771F0089526E08BE596E0DE
:105760000C943A3526E088EF96E0FACF26E085E9FA
:1057700097E0F6CF26E082E398E0F2CF1F920F92F7
:105780000FB60F9211240BB60F922F933F934F93A6
:105790005F936F937F938F939F93AF93BF93EF9399
:1057A000FF938FE89DEF9093250180932401BFD054
:1057B000FF91EF91BF91AF919F918F917F916F91E9
:1057C0005F914F913F912F910F900BBE0F900FBEA5
:1057D0000F901F9018958FE89DEF9093250180936F
:1057E0002401A3E7B0E08C918E7F8C93E0E2F1E09E
:1057F00080818C7F8083E1E2F1E08081877E8083FD
:1058000080818460808380818C7F80838C918160A3
:105810008C930895E3E7F0E0808190819E7F9083F0
:105820008170089581E0089510924E06089568EE03
:1058300073E080E090E0F1D590E080E0089526E00C
:1058400040E050E16EE070E08BE596E00E943A3572
:105850008BE596E00E947034892B29F08BE596E069
:105860000E948A34F5CF90E080E00895CF92DF92D5
:10587000EF92FF920F931F93CF93DF936B017A0107
:10588000E901198218828BE596E00E947034892B19
:1058900079F18601CC24C39482E0D82E80914E0603
:1058A000811111C08BE596E00E948A340297B1F70E
:1058B000C0924E06F801D1928F018881998101969C
:1058C00099838883EBCF888199818E159F0580F419
:1058D0008BE596E00E948A348F3F9807A1F3F80188
:1058E00081938F0188819981019699838883EBCF79
:1058F00090E080E0DF91CF911F910F91FF90EF90AA
:10590000DF90CF9008950F931F93CF93DF93EA0119
:1059100089018BE596E00E94CA37F801D183C083E4
:1059200090E080E0DF91CF911F910F9108958091D9
:105930004F0691E0980F90934F06882349F021E09D
:1059400030E0309351062093500680934F0608951F
:1059500078940E94EE04F89480914F068150F5CF20
:10596000CF93DF931092680A1092670A8CD5E1DE1C
:10597000C091AC02D091AD021982188260EE7EE235
:1059800080E090E00E94E30470E060E090E080E05E
:105990000E946103009709F037C00E94BD0DF89482
:1059A0007894BE016C557F4F8A819B810E9464036D
:1059B000892B69F46FEF7FEFCB010E94F5030E9402
:1059C000DD04882321F0C655DF4F81E08883F894F9
:1059D00002DF0E94E004811104C00E94DD0491E016
:1059E000811190E09093670A78940E941416EC015C
:1059F00078948091670A81110AC00E94480F0E9422
:105A0000C104F89490E080E0DF91CF9108950E9466
:105A1000BE040E94E00491E0811106C00E94DD04F2
:105A200091E0811101C090E09093680A9091680A1A
:105A300081E0911180E08093670A8091680A81116A
:105A4000E9DE219729F40E941416892B09F4ECDE73
:105A50000E941416EC01E6DECCCF5058BB27AA27D3
:105A60000ED075C166D130F06BD120F031F49F3F7C
:105A700011F41EF45BC10EF4E095E7FB51C1E92F70
:105A800077D180F3BA17620773078407950718F078
:105A900071F49EF58FC10EF4E0950B2EBA2FA02D58
:105AA0000B01B90190010C01CA01A0011124FF27CB
:105AB000591B99F0593F50F4503E68F11A16F040C6
:105AC000A22F232F342F4427585FF3CF46953795C5
:105AD0002795A795F0405395C9F77EF41F16BA0B8A
